:030000000221AA30
:0C21AA00787FE4F6D8FD7581220221F157
:10223600202020416464723A202020202020202083
:10224600004C4543542E20202020202020202020F2
:102256002000475241424143494F4E205553554174
:1022660052494F5300434F4D50524120444553432A
:1022760055454E544F00202020202020202020208D
:072286002020202020200091
:101E9D00510102454E204D414E54454E494D494547
:101EAD004E544F0051006E5441524A455441204901
:101EBD004E56414C494441005101C04552524F527A
:101ECD0020434F442E20504152512E0051000320EB
:101EDD002053494E20494E475245534F2020200054
:101EED0051004B414C41524D412020202041435443
:101EFD004956410051001643414A45524F204F501B
:101F0D004552415449564F0051021E434D44204500
:101F1D005850554C53494F4E2E2E2E005101D15431
:101F2D0041524A45544120475241424144412E00BD
:101F3D0051005D4552524F522053454C2E20434186
:101F4D0052442000510233496E3A20202020202097
:101F5D00202020202020200051003A202053494EDF
:101F6D0020534552564943494F20200051002945E1
:101F7D0052524F5220475241424143494F4E200049
:101F8D005101AC4552524F5220525441204C4543C1
:101F9D00544F520041002800C10EC10C4200C30035
:101FAD0000C104C107C108C109C10AC100C1034173
:101FBD00011414410000194102320041008000411A
:0B1FCD00007F004100BF304100BD005C
:0100210022BC
:10237D00E4900027F0300705E04401F02230080812
:10238D00900027E04402F022300908900027E04435
:0E239D0004F022300A07900027E04408F022E6
:03256C0012254EE7
:10256F00E4FFFE1200210FBF00010EEF64024E7058
:01257F00F269
:012580002238
:10258100E4FFFE1200210FBF00010EEF64024E7046
:01259100F257
:012592002226
:0E25400012237DED54F0FF900027E04FF58050
:08254E00D29112256FC2912207
:0F244A00F090008474FFF09000007419F07FC0D0
:10245900AD07C290122540EDC454F0FD54F0FFE0E1
:062469004FF58002254E34
:102512007F01122459E4FFFE1200210FBF00010EB9
:06252200EF64FA4E70F2B6
:012528002290
:10228D00C29012256FC29112256F75803912256C7F
:10229D0012256C12254E12256F75802912254E12AE
:1022AD00256F7F0C1224591225121200217F061260
:1022BD0024591200217F8012245912256F12237D7B
:0722CD00900027E0F58022DC
:0C246F0074852FF58274003EF583E0FFB9
:10247B00AD07D290120021122540EDC454F0FD544B
:09248B00F0FFE04FF58002254E40
:1023FD00AE07ED14600F14601114601324037016F2
:10240D00EE2480800DEE24C08008EE24948003EE2F
:07241D0024D4FF1224592210
:0B2348009002CFEBF0A3EAF0A3E9F055
:10235300E4FC9002CFE0FBA3E0FAA3E0F98C8275E2
:102363008300121DE9FF600612247B0C80E49002B7
:09237300CFE0FBA3E0FAA3E0F9BE
:01237C00223E
:0C25B100AE07AF05AD061223FD02234863
:08210C00A3F0A37403F07F05AA
:052114009002C9EFF08C
:10211900C212D2B69002CB121E4600007530E4906E
:1021290002CAF0C2B530B4439002CAE0703DA3E0E0
:10213900FCA3E0FDA3E0FEA3E0FFEF24FFFFEE34E4
:10214900FFFEED34FFFDEC34FFFC9002CB121E3A8A
:102159009002CBE0FCA3E0FDA3E0FEA3E0FFEC4D81
:102169004E4F70C19002CA04F080BA9002CAE07062
:1021790027FD9002C9E0FFEDC39F501A74812DF528
:1021890082E43400F583E0F5A0C2B612256FD2B619
:1021990012256F0D80DCD212D2B6D2B4D2B5A212FA
:0121A9002213
:03002300021A813D
:0D1A8100C0E0C0F0C083C082C0D075D008A6
:101A8E00209803021CE1AF99C298900114E024EB58
:101A9E00605224FE6074147003021B34240460032D
:101AAE00021CDB90007FE4F0EFFD3395E0FCED646B
:101ABE00024C7019E0FE04F074162EF582E4340127
:101ACE00F583EFF09001147415F0021CE1ED64063D
:101ADE004C6003021CE19000817406F07F0112211C
:101AEE0014021CE19000BFE0B50F1C90007FE0FED9
:101AFE0004F074162EF582E43401F583EFF09001B4
:101B0E00147417F0021CE1021CDB90007FE0FE044F
:101B1E00F074162EF582E43401F583EFF090011483
:101B2E007418F0021CE190007FE0FE04F074162E93
:101B3E00F582E43401F583EFF090007FE0FD7C0048
:101B4E00D39464748094804003021CDBEF3395E0E1
:101B5E00FEEF64034E6003021CE19000C0741EF0A1
:101B6E00C20E900119E0121E771CB33F1BB1411C2F
:101B7E0072441CA2451C1C461C044D1BBA4F1C3340
:101B8E00531C8B551C6A571C82651C0D6F1BA8704D
:101B9E001BD7731C7A7700001CC8900000741AF0D3
:101BAE00021CD9900000741CF0021CD9ED64104C7C
:101BBE007009D2009000007422801D900000741BEA
:101BCE00F0300003021CD9803C90007FE064157059
:101BDE0017D2009000007427F09000027403F0906A
:101BEE000028740AF0021CD9900000741BF030001B
:101BFE0003021CD9800F9000007422F0021CD990B1
:101C0E0000007425F09000027401F0021CD99001BE
:101C1E00147414F09000007426F09000C3E4F0A346
:101C2E0004F0021CD99001147414F090011AE0FD16
:101C3E00B4310A900232E054FBF0021CD9EDB432FA
:101C4E000A900232E054EFF0021CD990011AE064BF
:101C5E00337078900232E054F7F0806F9000007489
:101C6E001EF080679000007420F0805F900000747A
:101C7E001FF08057900232E054DFF0804E90023217
:101C8E00E054DFF09000007424F090011AE0900010
:101C9E0001F08037D2979000C3E4F0A3F0900000DB
:101CAE007423F080269000817402F0A37430F0A3A8
:101CBE007405F0743F12210C8000900084E4F090C3
:101CCE0001147414F09000007419F0800090011447
:0A1CDE007414F0309904C299C20496
:0B1CE800D0D0D082D083D0F0D0E0320A
:0825BD002004FD8F99D20422D5
:0224DD00AE0748
:1024DF00E4FDEDC39E5012747A2DF582E43401F5BC
:0924EF0083E0FF1225BD0D80E918
:0124F80022C1
:02252900AE07FB
:10252B00EE54F0C4540F4430FF1225BDEE540F444B
:05253B0030FF0225BD88
:1024B900300704D2808002C280300804D2818002B1
:1024C900C281300904D2828002C282300A03D283D7
:0424D90022C2832276
:0425C500EFFEEDFF39
:0125C90022EF
:04255600AD07AC061B
:10255A00EEFFF599C2993099FDEDF599C299309936
:01256A00FD73
:01256B00224D
:101FD900E49002A3F0D2B5900113F09002A4743CEE
:101FE900F030B403022107E49002A2F0C2B5A3F0D5
:101FF9009002A4E0FF9002A3E0C39F4003022107DF
:1020090090029E121E460000753030B64F20B44C27
:102019009002A2E0704690029EE0FCA3E0FDA3E0DE
:10202900FEA3E0FFEF24FFFFEE34FFFEED34FFFDDA
:10203900EC34FFFC90029E121E3A90029EE0FCA333
:10204900E0FDA3E0FEA3E0FFEC4D4E4F70BCA304FE
:10205900F09002A4E0049002A3F080AE30B603022F
:1020690020F29002A2E060030220F220B47BA3E0F8
:102079002481F582E43400F583E5A0F0900113E0B2
:1020890004F090029E121E460000271020B65A90B6
:1020990002A2E07054A3E02481F582E43400F583C0
:1020A900E5A0F090029EE0FCA3E0FDA3E0FEA3E022
:1020B900FFEF24FFFFEE34FFFEED34FFFDEC34FFAC
:1020C900FC90029E121E3A90029EE0FCA3E0FDA342
:1020D900E0FEA3E0FFEC4D4E4F70B1A304F0900277
:1020E900A4E0049002A3F080A330B4099002A4E014
:1020F900049002A3F09002A3E004F0021FF9D2B504
:0321090002256F3D
:10259300EF540FC454F0FFED540F4FFF90022FF090
:0125A3002215
:0C0F350090029EEFF09002A0EBF0AA05E5
:100F41009002A3121E46000000009002A7121E4646
:100F510000000000E49002BFF0A3F0A3F0A3F0A30F
:100F6100F0A3F0A3F0A3F0A3F0A3F0AF029002A3CB
:100F7100E0F8A3E0F9A3E0FAA3E04FFFEAFEE9FD00
:100F8100E8FC9002A3121E3A9002A3E0FCA3E0FD4C
:100F9100A3E0FEA3E0FF7808121E279002A3121E11
:100FA1003A9002A0E0FF9002A3E0F8A3E0F9A3E0E9
:100FB100FAA3E04FFFEAFEE9FDE8FC9002A3121E4E
:100FC1003A9002A3E0FCA3E0FDA3E0FEA3E0FF78DA
:100FD10008121E279002A3121E3A9002A1E0FF9070
:100FE10002A3E0F8A3E0F9A3E0FAA3E04FFFEAFED1
:100FF100E9FDE8FC9002A3121E3A9002A3E0FCA3D3
:10100100E0FDA3E0FEA3E0FF7808121E279002A3F3
:10101100121E3A9002A2E0FFA3E0F8A3E0F9A3E0D8
:10102100FAA3E04FFFEAFEE9FDE8FC9002A3121EDD
:101031003A9002A3E0FCA3E0FDA3E0FEA3E0FFA33E
:10104100121E3A7F007ECA7D9A7C3B9002A7E0F88F
:10105100A3E0F9A3E0FAA3E0FBC3121E16402A9015
:1010610002A7E0FCA3E0FDA3E0FEA3E02400FFEE65
:101071003436FEED3465FDEC34C4FC9002A7121E3B
:101081003A9002BFE004F080BA9002BFE04430F031
:101091007F007EE17DF57C059002A7E0F8A3E0F9F1
:1010A100A3E0FAA3E0FBC3121E16402A9002A7E0B8
:1010B100FCA3E0FDA3E0FEA3E02400FFEE341FFE4D
:1010C100ED340AFDEC34FAFC9002A7121E3A9002AC
:1010D100C0E004F080BA9002C0E04430F07F807E2E
:1010E100967D987C009002A7E0F8A3E0F9A3E0FACE
:1010F100A3E0FBC3121E16402A9002A7E0FCA3E066
:10110100FDA3E0FEA3E02480FFEE3469FEED346729
:10111100FDEC34FFFC9002A7121E3A9002C1E004DC
:10112100F080BA9002C1E04430F07F407E427D0FF2
:101131007C009002A7E0F8A3E0F9A3E0FAA3E0FBAA
:10114100C3121E16402A9002A7E0FCA3E0FDA3E013
:10115100FEA3E024C0FFEE34BDFEED34F0FDEC341F
:10116100FFFC9002A7121E3A9002C2E004F080BA7E
:101171009002C2E04430F07FA07E867D017C009029
:1011810002A7E0F8A3E0F9A3E0FAA3E0FBC3121E73
:1011910016402A9002A7E0FCA3E0FDA3E0FEA3E035
:1011A1002460FFEE3479FEED34FEFDEC34FFFC905B
:1011B10002A7121E3A9002C3E004F080BA9002C363
:1011C100E04430F0E47F107E27FDFC9002A7E0F8B8
:1011D100A3E0F9A3E0FAA3E0FBC3121E16402A9094
:1011E10002A7E0FCA3E0FDA3E0FEA3E024F0FFEEF4
:1011F10034D8FEED34FFFDEC34FFFC9002A7121E43
:101201003A9002C4E004F080BB9002C4E04430F0A4
:10121100E47FE87E03FDFC9002A7E0F8A3E0F9A3D8
:10122100E0FAA3E0FBC3121E16402A9002A7E0FCDD
:10123100A3E0FDA3E0FEA3E02418FFEE34FCFEEDE5
:1012410034FFFDEC34FFFC9002A7121E3A9002C558
:10125100E004F080BB9002C5E04430F0E47F64FE1E
:10126100FDFC9002A7E0F8A3E0F9A3E0FAA3E0FBFC
:10127100C3121E16402A9002A7E0FCA3E0FDA3E0E2
:10128100FEA3E0249CFFEE34FFFEED34FFFDEC34C1
:10129100FFFC9002A7121E3A9002C6E004F080BC47
:1012A1009002C6E04430F0E47F0AFEFDFC9002A704
:1012B100E0F8A3E0F9A3E0FAA3E0FBC3121E164095
:1012C1002A9002A7E0FCA3E0FDA3E0FEA3E024F640
:1012D100FFEE34FFFEED34FFFDEC34FFFC9002A77E
:1012E100121E3A9002C7E004F080BC9002C7E044AD
:1012F10030F09002A7A3A3A3E09002C8F04430F01D
:101301009002BFE0FF12247B9002C0E0FF12247B19
:101311009002C1E0FF12247B9002C2E0FF12247B05
:101321009002C3E0FF12247B9002C4E0FF12247BF1
:101331009002C5E0FF12247B9002C6E0FF12247BDD
:101341009002C7E0FF12247B9002C8E0FF12247BC9
:1013510090029EE06455706C900113740FF0900040
:10136100817402F0A37430F0A3740FF0A37455F0EC
:101371009002BFE0900085F09002C0E0900086F0FE
:101381009002C1E0900087F09002C2E0900088F0E6
:101391009002C3E0900089F09002C4E090008AF0CE
:1013A1009002C5E090008BF09002C6E090008CF0B6
:1013B1009002C7E090008DF09002C8E090008EF09E
:1013C100A37403F090029EE06444600302150F9041
:1013D10002AB121E4600000000E47F10FEFDFC90EF
:1013E10002ABE0F8A3E0F9A3E0FAA3E0FBC3121E0D
:1013F1001650409002ABA3A3A3E0FF248CF582E436
:101401003400F583E0FE74AF2FF582E43402F583F6
:10141100EEF09002ABE0FCA3E0FDA3E0FEA3E0242C
:1014210001FFE43EFEE43DFDE43CFC9002AB121EF4
:101431003A80A69001137422F09000817402F0A307
:101441007430F0A37422F0A37476F0A3743AF09090
:1014510002BFE0900086F09002C0E0900087F0901B
:1014610002C1E0900088F09002C2E0900089F09003
:1014710002C3E090008AF09002C4E090008BF090EB
:1014810002C5E090008CF09002C6E090008DF090D3
:1014910002C7E090008EF09002C8E090008FF0A3A8
:1014A100743AF09002AB121E4600000000E47F1077
:1014B100FEFDFC9002ABE0F8A3E0F9A3E0FAA3E0A3
:1014C100FBC3121E1650409002ABA3A3A3E0FF245E
:1014D100AFF582E43402F583E0FE74912FF582E4E6
:1014E1003400F583EEF09002ABE0FCA3E0FDA3E055
:1014F100FEA3E02401FFE43EFEE43DFDE43CFC905C
:1015010002AB121E3A80A69000A1743A8077900136
:10151100137412F09000817402F0A37430F0A3747C
:1015210012F0A37454F0A3743AF090029EE090007C
:1015310086F0A3743AF09002BFE0900088F0900228
:10154100C0E0900089F09002C1E090008AF0900222
:10155100C2E090008BF09002C3E090008CF090020A
:10156100C4E090008DF09002C5E090008EF09002F2
:10157100C6E090008FF09002C7E0900090F09002DA
:0A158100C8E0900091F0A37403F09D
:01158B00223D
:10242400AE07EEC4540F540FFE6012EF540FFFE4D6
:10243400FDEDC39E5007740A2FFF0D80F4EF243086
:05244400FF9000BEF056
:012449002270
:10000300AE07EEC4540F540FFE6012EF540FFFE41B
:0D001300FDEDC39E5007740A2FFF0D80F411
:0100200022BD
:1022D400E4FEFDEFD3943074809480402774D02FB3
:1022E400FFE4FCECC39F500B0DED640A7002FD0E7D
:1022F4000C80F0EEC454F054F0FEED540F4EFF90F9
:09230400022FF02290022FE0FFED
:01230D0022AD
:10249400E4FEFDFCECC39F500B0DED640A7002FDDD
:1024A4000E0C80F0EEC454F054F0FEED540F4EFFC9
:0424B40090022FF073
:0124B8002201
:10230E00E4FEFCEFC3946474809480400C749C2FA4
:10231E00FF9002D2E004F080EAEFC3940A74809436
:10232E0080400774F62FFF0E80EFAC07EE4430FFAF
:0A233E0012247BEC4430FF02247BE4
:0223D500AC0753
:1023D700EC7E0054F0FFEEC4F854F0C868FEEFC47A
:1023E700540F484430FF12247BAF047E00EF540F94
:0623F7004430FF02247BCC
:0D25A400C294C296C295D291D290C20B2271
:1023AB00C292C29312256F9000BF7430F03092032B
:1023BB00E004F03093079000BFE02402F07FC912D5
:0A23CB0024599000BFE0FF02247BBC
:10158C00900000E024E7B40F004003021A7A901593
:10159C00A875F003A4C58325F0C58373021A8002D5
:1015AC0015D50218050216FD021A7A021711021A35
:1015BC007A0219EE021A7A02173D0218E202187822
:1015CC0002199202193F021796900232E0FF700343
:1015DC00D20622EF54016401702F90005CE090025F
:1015EC009EF0E4F990005CE0FFE9C39F505574E273
:1015FC0029F582E43401F583E0FF747A29F582E45D
:10160C003401F583EFF00980DB900232E0FC5420CA
:10161C006420703790005CE090029EF0E4F990003A
:10162C005CE0FFE9C39F501B74E229F582E43401AE
:10163C00F583E0FF747A29F582E43401F583EFF049
:10164C000980DB90029EE0FF0216F7EC5480648068
:10165C00702290017A7402F09000BFE090017BF050
:10166C00A37406F0A37447F0A37431F0A37403F0D1
:10167C007F068077900232E0FC54046404701E9064
:10168C00017A7402F0A37430F0A37406F0A37453BF
:10169C00F0A37431F0A37403F07F06804EEC541069
:1016AC006410701E90017A7402F0A37430F0A3746D
:1016BC0006F0A37453F0A37432F0A37403F07F0606
:1016CC008029900232E0540864086003021A80906A
:1016DC00017A7402F0A37430F0A37406F0A374536F
:1016EC00F0A37433F0A37403F07F061224DD021709
:1016FC008EC2109000C5741CF0E4F58CF58AC28D76
:10170C00D206021A75E4F990007FE0FFE9C39F50FE
:10171C001B741629F582E43401F583E0FE748129EB
:10172C00F582E43400F583EEF00980DB122114809D
:10173C00517F80122459E4F9E9C394107480948089
:10174C005026741629F582E43401F583E0FF748188
:10175C0029F582E43400F583EFF0741629F582E460
:10176C0034011224770980D020B403021A8030008F
:10177C00057F061225BD7F10122114900232E05411
:10178C00FEF090011474140219EA20B403021A80BA
:10179C00E4F9E9C3941574809480501B741629F5F0
:1017AC0082E43401F583E0FF748129F582E434008E
:1017BC00F583EFF00980DB7F80122459790CE9C3A3
:1017CC00941474809480500E741629F582E43401BC
:1017DC001224770980E87F15122114900232E0540C
:1017EC00FEF09001147414F09000007419F02000B5
:1017FC0003021A807F060225BD20B403021A8090D2
:10180C0000817402F0A37430F0A37405F0744F12CD
:10181C00210C920330034E7F80122459E4F9E9C362
:10182C0094107480948050087F2012247B0980EEE1
:10183C007FC0122459E4F9E9C39410748094805049
:10184C000E741E29F582E434021224770980E8C252
:10185C0003900232E054FEF09000007419F09001F5
:10186C00147414F022900000741BF022900001E01C
:10187C00FF7E00D39430748094805003021A80D37E
:10188C00EF9439748094804003021A807F80122474
:10189C0059E4F9E9C394107480948050087F2012A5
:1018AC00247B0980EE900232E054FEF090008174AB
:1018BC0002F0A37430F0A37406F0A37455F09000FA
:1018CC0001E0900085F0A37403F07F06122114E46C
:1018DC009000840219EA7F80122459E4F9E9C39438
:1018EC00107480948050087F2012247B0980EE7F36
:1018FC00C0122459E4F9741629F582E43400F583F6
:10190C00E0FF600612247B0980ECE49000C3F0A396
:10191C00F0900232E054FEF09000817402F0A37457
:10192C0030F0A37405F0A3744512210DE4900084EB
:10193C000219EA7F80122459E4F9E9C394107480E7
:10194C00948050087F2012247B0980EE7FC01224E3
:10195C0059E4F9743A29F582E43400F583E0FF6028
:10196C000612247B0980ECE4900232F09000817422
:10197C0002F0A37430F0A37405F0A3744612210D89
:10198C00E490008480587F80122459E4F9E9C394D0
:10199C00107480948050087F2012247B0980EE7F85
:1019AC00C0122459E4F9E9C3941074809480500E49
:1019BC00741629F582E434001224770980E890002B
:1019CC00817402F0A37430F0A37405F0A3746F1249
:1019DC00210DD2979001147414F0E4900232F002AD
:1019EC001A7A90007FE0D39405748094804073122F
:1019FC00228D90007FE0FCD394157480948040403D
:101A0C007F80122459E4F9E9C394107480948050B7
:101A1C000E741A29F582E434011224770980E87FC8
:101A2C00C012245990007FE024EBFBE4F9E9C39B3E
:101A3C00502C742A29F582E434011224770980EDA4
:101A4C00EC24FBFC7F80122459E4F9E9C39C500E72
:101A5C00741A29F582E434011224770980EDD20638
:101A6C0080069000007419F0E4900084F02290003D
:041A7C00007419F0E9
:011A80002243
:1024F900C204759850438780438920758840758D3B
:09250900F4758BF4D28ED2AC22E1
:1000260078447C027D017BFF7A2279367E007F113F
:10003600121DC378557C027D017BFF7A2279477EAB
:10004600007F11121DC378667C027D017BFF7A2238
:1000560079587E007F13121DC378797C027D017B5F
:10006600FF7A22796B7E007F11121DC3788A7C028B
:100076007D017BFF7A22797C7E007F11121DC312DF
:1000860025A4C20DC206D297C2CFE4F5CDF5CCD2D7
:10009600CAD2AF1224F9E58954F04401F589C28D1C
:1000A600E4F58CF58AD28C12228DC280C207C281F9
:1000B600C208C282C209C283C20A9000027401F059
:1000C600E4900028F0C200C2109001BEF0A3F090A8
:1000D60000C5741CF0E4900230F09000BE74FFF08E
:1000E6007408F0E4900014F0A3F0C2059000C07408
:1000F6001EF09000007419F09001147414F0C20CF4
:10010600E49000C3F0A3F0900232F07FC0122459AD
:10011600E490029BF0A3F090029BE0FEA3E024167D
:10012600F58274003EF583E0FF601312247B900293
:100136009CE004F070E190029BE004F080D9D2B517
:10014600D2B675A0FF9000C1E5A0F012158C30B4B0
:1001560003020DF490008174FFF0121FD990011371
:10016600E07003020DEF90005CF09002307470F0C6
:10017600900081E064026003020DEA900084E0FFD3
:10018600644C6017EF64546012EF6455600DEF64C1
:10019600416008EF647060030206809000027402FA
:1001A600F0C200EF645570537F80122459E4900228
:1001B6009BF0A3F090029BE0FEA3E02455F5827429
:1001C600023EF583E0FF601312247B90029CE0045C
:1001D600F070E190029BE004F080D97F86122459EA
:1001E600900085E0FDA3E0FBA3E09002A1F0900063
:1001F60088E09002A2F07F550203D5900084E06467
:1002060054600302029D900086E06444600302028B
:100216009D7FC0122459E490029BF0A3F090029BAC
:10022600E0FEA3E02479F58274023EF583E0FF60E8
:100236001312247B90029CE004F070E190029BE094
:1002460004F080D97F80122459E490029BF0A3F039
:1002560090029BE0FEA3E02455F58274023EF583EE
:10026600E0FF601312247B90029CE004F070E190A2
:10027600029BE004F080D97F86122459900087E023
:10028600FDA3E0FBA3E09002A1F090008AE09002BB
:10029600A2F07F440203D5900084E0645460030218
:1002A6000339900086E0643060030203397FC01290
:1002B6002459E490029BF0A3F090029BE0FEA3E099
:1002C6002466F58274023EF583E0FF601312247BF8
:1002D60090029CE004F070E190029BE004F080D96B
:1002E6007F80122459E490029BF0A3F090029BE0D9
:1002F600FEA3E02455F58274023EF583E0FF601309
:1003060012247B90029CE004F070E190029BE004D2
:10031600F080D97F86122459900087E0FDA3E0FB88
:10032600A3E09002A1F090008AE09002A2F07F3054
:100336000203D5900084E0645460030203DB90005E
:1003460086E0643070030203DBC2977FC012245933
:10035600E490029BF0A3F090029BE0FEA3E024024F
:10036600F58274013EF583E0FF601312247B900250
:100376009CE004F070E190029BE004F080D97F805D
:10038600122459E490029BF0A3F090029BE0FEA396
:10039600E02455F58274023EF583E0FF60131224D3
:1003A6007B90029CE004F070E190029BE004F080F8
:1003B600D97F86122459900086E0FFA3E0FDA3E0D2
:1003C600FBA3E09002A1F090008AE09002A2F01256
:1003D6000F35020623900084E0FC644170437FC021
:1003E600122459E490029BF0A3F090029BE0FEA336
:1003F600E0244BF58274003EF583E0FF601312247F
:100406007B90029CE004F070E190029BE004F08097
:10041600D97FC7122459900085E0FF12247B02067B
:1004260023EC644C600302052690029BF0A3F09037
:100436000113E0FFFD90029BE0FAA3E0FBC39DEAF7
:100446009400503074812BF58274003AF583E0B441
:100456003A1290029DEBF0EF2401FEE43390029BEA
:10046600F0A3CEF090029CE004F070C390029BE0F3
:1004760004F080BB7F80122459E490029BF0A3F025
:1004860090029BE0FEA3E02433F58274023EF583DE
:10049600E0FF601312247B90029CE004F070E19070
:1004A600029BE004F080D97F8412245990029DE0DB
:1004B6002401FEE43390029BF0A3CEF090029DE06F
:1004C600240DFFE433FE90029BE0FCA3E0FDC39FF6
:1004D600EC9E501B74812DF58274003C122477909B
:1004E600029CE004F070D590029BE004F080CD7F82
:1004F600C0122459E490029BF0A3F07F2012247BC3
:1005060090029CE004F0700690029BE004F0C39019
:10051600029CE0941090029BE0940040DE020623C9
:10052600900084E0647060030206237F80122459E1
:10053600E490029BF0A3F07F2012247B90029CE0C3
:1005460004F0700690029BE004F0C390029CE094D5
:100556001090029BE0940040DE7F80122459E490C4
:10056600029BF0A3F090029BE0FEA3E0FFC3940879
:10057600EE9400501312246F90029CE004F070E594
:1005860090029BE004F080DDE490029BF0A3F090E3
:10059600029BE0FEA3E0FFC39408EE9400501A7499
:1005A6008D2FF582740012247690029CE004F07080
:1005B600DE90029BE004F080D67FC0122459E490BE
:1005C600029BF0A3F07F2012247B90029CE004F0B3
:1005D600700690029BE004F0C390029CE094109099
:1005E600029BE0940040DE7FC0122459E490029BF7
:1005F600F0A3F090029BE0FEA3E0FFC39409EE9403
:1006060000501A74962FF582740012247690029C7C
:10061600E004F070DE90029BE004F080D690023297
:10062600E04401F0900113E090005CF0E490029B3E
:10063600F0A3F090005CE0FF90029BE0FCA3E0FDDD
:10064600C39FEC9400502874812DF58274003CF50C
:1006560083E0FF74E22DF58274013CF583EFF090A0
:10066600029CE004F070CC90029BE004F080C49001
:100676000014E4F0A37454F0C205900084E06470A2
:1006860060030207A97F80122459E490029BF0A31D
:10069600F07F2012247B90029CE004F0700690020A
:1006A6009BE004F0C390029CE0941090029BE094BF
:1006B6000040DE7F80122459E490029BF0A3F09064
:1006C600029BE0FEA3E0FFC39410EE9400501312C9
:1006D600246F90029CE004F070E590029BE004F029
:1006E60080DD7FC0122459E490029BF0A3F07F20A6
:1006F60012247B90029CE004F0700690029BE004BA
:10070600F0C390029CE0941090029BE0940040DEBF
:100716007FC0122459E490029BF0A3F090029BE064
:10072600FEA3E0FFC39409EE9400501A74962FF5C9
:1007360082740012247690029CE004F070DE90022F
:100746009BE004F080D6900232E04401F090011361
:10075600E090005CF0E490029BF0A3F090005CE077
:10076600FF90029BE0FCA3E0FDC39FEC94005028A1
:1007760074812DF58274003CF583E0FF74E22DF55B
:100786008274013CF583EFF090029CE004F070CC9B
:1007960090029BE004F080C4900014E4F0A374542B
:1007A600F0C205900084E0FCB43F2C90017A7402FC
:1007B600F09000BFE090017BF0A37406F0A3743FB5
:1007C600F0A37456F0A37403F07F061224DD9000A4
:1007D6008474FFF0020DEAEC645860030208689026
:1007E6000085E06403707B900232F0900084F09004
:1007F60000007419F0E49000C3F0A3F0D2977F8054
:10080600122459E490029BF0A3F07F2012247B90DF
:10081600029CE004F0700690029BE004F0C3900294
:100826009CE0941090029BE0940040DE7FC012246E
:1008360059E490029BF0A3F090029BE0FEA3E02413
:1008460016F58274003EF583E0FF7003020DEA128E
:10085600247B90029CE004F070DE90029BE004F0A2
:1008660080D6900084E064537042900086E0640372
:10087600703A900085E0FDB43109900232E04404FC
:10088600F0801BEDB43209900232E04410F0800E85
:10089600900085E0B43307900232E04408F0E4901B
:1008A6000086F09000007419F0020DEA900084E0D2
:1008B60064656003020DEAA3E0121E7708EA3109B7
:1008C600513309B8340A1F370A85380AF2390B49F9
:1008D6003B0BBB3D0C413E0CA83F0D0F400D80412C
:1008E60000000DEA7FC0122459E490029BF0A3F0A9
:1008F60090029BE0FEA3E0FFC39410EE9400501A12
:10090600746E2FF582740012247690029CE004F037
:1009160070DE90029BE004F080D67F80122459E4BA
:1009260090029BF0A3F07F2012247B90029CE004AF
:10093600F0700690029BE004F0C390029CE09410D5
:1009460090029BE0940040DE020AE97FC01224591F
:10095600E490029BF0A3F090029BE0FEA3E0FFC3AD
:100966009410EE9400501A74292FF5827400122404
:100976007690029CE004F070DE90029BE004F0802A
:10098600D67F80122459E490029BF0A3F07F2012B8
:10099600247B90029CE004F0700690029BE004F039
:1009A600C390029CE0941090029BE0940040DE020B
:1009B6000AE97FC0122459E490029BF0A3F090024A
:1009C6009BE0FEA3E0FFC39410EE9400501A74ACB3
:1009D6002FF582740112247690029CE004F070DEFA
:1009E60090029BE004F080D67F80122459E49002A6
:1009F6009BF0A3F07F2012247B90029CE004F07011
:100A06000690029BE004F0C390029CE094109002D2
:100A16009BE0940040DE020AE97FC0122459E4906C
:100A2600029BF0A3F090029BE0FEA3E0FFC39410AC
:100A3600EE9400501A74032FF582740012247690F7
:100A4600029CE004F070DE90029BE004F080D67F0A
:100A560080122459E490029BF0A3F07F2012247B9D
:100A660090029CE004F0700690029BE004F0C390B4
:100A7600029CE0941090029BE0940040DE80647F2C
:100A8600C0122459E490029BF0A3F090029BE0FE72
:100A9600A3E0FFC39410EE9400501A74C02FF582A1
:100AA600740112247690029CE004F070DE90029BA2
:100AB600E004F080D67F80122459E490029BF0A3D4
:100AC600F07F2012247B90029CE004F070069002D6
:100AD6009BE004F0C390029CE0941090029BE0948B
:100AE6000040DE9000027401F0020DEA7FC012247D
:100AF60059E490029BF0A3F090029CE004F070068B
:100B060090029BE004F090029BE07004A3E0641066
:100B160070E67F80122459E490029BF0A3F07F20B8
:100B260012247B90029CE004F0700690029BE00485
:100B3600F0C390029CE0941090029BE0940040DE8B
:100B4600020DEA7FC01224597F4512247B7F721260
:100B5600247B7F7212247B7F6F12247B7F72122488
:100B66007B7F2012247B7F5312247B7F7412247B8D
:100B76007F6112247B7F7412247B7F7512247B7F16
:100B86007312247B7F80122459E490029BF0A3F019
:100B96007F2012247B90029CE004F0700690029B5A
:100BA600E004F0C390029CE0941090029BE0940055
:100BB60040DE020DEA7FC01224597F4512247B7F56
:100BC6007212247B7F7212247B7F2E12247B7F205D
:100BD60012247B7F4312247B7F6112247B7F721257
:100BE600247B7F6412247B7F2012247B7F45122482
:100BF6007B7F6A12247B7F6512247B7F6312247BB2
:100C06007F7412247B7F2012247B7F80122459E478
:100C160090029BF0A3F07F2012247B90029CE004BC
:100C2600F0700690029BE004F0C390029CE09410E2
:100C360090029BE0940040DE020DEA7FC012245928
:100C4600E490029BF0A3F090029BE0FEA3E0FFC3BA
:100C56009410EE9400501A74D12FF5827401122468
:100C66007690029CE004F070DE90029BE004F08037
:100C7600D67F80122459E490029BF0A3F07F2012C5
:100C8600247B90029CE004F0700690029BE004F046
:100C9600C390029CE0941090029BE0940040DE0218
:100CA6000DEA7FC0122459E490029BF0A3F0900253
:100CB6009BE0FEA3E0FFC39410EE9400501A745D0F
:100CC6002FF582740012247690029CE004F070DE08
:100CD60090029BE004F080D67F80122459E49002B3
:100CE6009BF0A3F07F2012247B90029CE004F0701E
:100CF6000690029BE004F0C390029CE094109002E0
:100D06009BE0940040DE020DEA9000027401F09030
:100D16000232E0448012244A7F4512247B7F7212FD
:100D2600247B7F7212247B7F6F12247B7F721224B6
:100D36007B7F2012247B7F4312247B7F4112247BFE
:100D46007F5212247B7F4412247B7F80122459E435
:100D560090029BF0A3F07F2012247B90029CE0047B
:100D6600F0700690029BE004F0C390029CE09410A1
:100D760090029BE0940040DE806A900232E054FECE
:100D8600F09001147414F09000007419F0900002B1
:100D9600740112244AE490029BF0A3F090029CE0B6
:100DA60004F0700690029BE004F090029BE0700451
:100DB600A3E0641070E67F80122459E490029BF051
:100DC600A3F07F2012247B90029CE004F070069032
:100DD600029BE004F0C390029CE0941090029BE01A
:100DE600940040DEE4900113F0E4900081F03006B8
:100DF6003190017A7402F09000BFE090017BF0A37D
:100E06007405F0A304F0A37403F07F051224DD90AB
:100E160001147414F09000007419F0E4900232F09A
:100E2600C20630CF10C2CF900230E0600814F0E066
:100E36007003741CF0208D03020F2FC28D9000C525
:100E4600E014F020B718E0FF640E6003EF70113075
:100E56000206C294C2028008D294D2028002D294C0
:100E66009000C5E0FF640E6003EF702F900002E073
:100E7600FF7E0064017006B207C208800AEF6402B2
:100E86004E700AC207B208C209C20A800EEF640396
:100E96004E7008C207C208B209C20A9000C5E070C7
:100EA60065741CF09000C0E0600214F0900028E029
:100EB600600A14F0E0700590000204F09000C0E0B3
:100EC6007033741EF07F80122459E490029BF0A3C5
:100ED600F07F2012247B90029CE004F070069002C2
:100EE6009BE004F0C390029CE0941090029BE09477
:100EF6000040DED20EC296C295C2109000C5741C88
:100F0600F0E4F58CF58A900014E07002A3E0601717
:100F1600900015E024FFF0900014E034FFF0E0703C
:0F0F260008A3E064018002C2051224B902014849
:1021B600020026E493A3F8E493A34003F68001F219
:1021C60008DFF48029E493A3F85407240CC8C3332A
:1021D600C4540F4420C8834004F456800146F6DFF9
:1021E600E4800B0102040810204080901E9DE47ECE
:1021F600019360BCA3FF543F30E509541FFEE493EE
:10220600A360010ECF54C025E060A840B8E493A3B4
:10221600FAE493A3F8E493A3C8C582C8CAC583CADF
:10222600F0A3C8C582C8CAC583CADFE9DEE780BE97
:011FD8000008
:101CF300E709F608DFFA8046E709F208DFFA803ED3
:101D030088828C83E709F0A3DFFA8032E309F608BF
:101D1300DFFA8078E309F208DFFA807088828C8327
:101D2300E309F0A3DFFA806489828A83E0A3F608DB
:101D3300DFFA805889828A83E0A3F208DFFA804CB5
:101D430080D280FA80C680D4806980F2803380108C
:101D530080A680EA809A80A880DA80E280CA8033F5
:101D630089828A83ECFAE493A3C8C582C8CCC5836D
:101D7300CCF0A3C8C582C8CCC583CCDFE9DEE7803D
:101D83000D89828A83E493A3F608DFF9ECFAA9F0BC
:101D9300EDFB2289828A83ECFAE0A3C8C582C8CC12
:101DA300C583CCF0A3C8C582C8CCC583CCDFEADE2B
:101DB300E880DB89828A83E493A3F208DFF980CC8D
:101DC30088F0EF60010E4E60C388F0ED2402B40486
:101DD3000050B9F582EB2402B4040050AF2323452D
:061DE3008223901D4373F2
:101DE900BB010CE58229F582E5833AF583E02250AF
:101DF90006E92582F8E622BBFE06E92582F8E222F9
:0D1E0900E58229F582E5833AF583E4932212
:101E1600EB9FF5F0EA9E42F0E99D42F0E89C45F022
:011E26002299
:101E2700E8600FEFC333FFEE33FEED33FDEC33FC19
:031E3700D8F122BD
:0C1E3A00ECF0A3EDF0A3EEF0A3EFF0221B
:101E4600A8828583F0D083D082121E5D121E5D1299
:101E56001E5D121E5DE473E493A3C583C5F0C583BE
:101E6600C8C582C8F0A3C583C5F0C583C8C582C8E6
:011E76002249
:101E7700D083D082F8E4937012740193700DA3A3FA
:101E870093F8740193F5828883E47374029368600E
:061E9700EFA3A3A380DF0E
:00000001FF
