:030000000221B624
:0C21B600787FE4F6D8FD7581220221FD3F
:10224200202020416464723A202020202020202077
:10225200004C4543542E20202020202020202020E6
:102262002000475241424143494F4E205553554168
:1022720052494F5300434F4D50524120444553431E
:1022820055454E544F002020202020202020202081
:072292002020202020200085
:101EA900510102454E204D414E54454E494D49453B
:101EB9004E544F0051006E5441524A4554412049F5
:101EC9004E56414C494441005101C04552524F526E
:101ED90020434F442E20504152512E0051000320DF
:101EE9002053494E20494E475245534F2020200048
:101EF90051004B414C41524D412020202041435437
:101F09004956410051001643414A45524F204F500E
:101F19004552415449564F0051021E434D442045F4
:101F29005850554C53494F4E2E2E2E005101D15425
:101F390041524A45544120475241424144412E00B1
:101F490051005D4552524F522053454C2E2043417A
:101F590052442000510233496E3A2020202020208B
:101F6900202020202020200051003A202053494ED3
:101F790020534552564943494F20200051002945D5
:101F890052524F5220475241424143494F4E20003D
:101F99005101AC4552524F5220525441204C4543B5
:101FA900544F520041002800C10EC10C4200C30029
:101FB90000C104C107C108C109C10AC100C1034167
:101FC900011414410000194102320041008000410E
:0B1FD900007F004100BF304100BD0050
:0100210022BC
:10238900E4900027F0300705E04401F02230080806
:10239900900027E04402F022300908900027E04429
:0E23A90004F022300A07900027E04408F022DA
:0325780012255ACF
:10257B00E4FFFE1200210FBF00010EEF64024E704C
:01258B00F25D
:01258C00222C
:10258D00E4FFFE1200210FBF00010EEF64024E703A
:01259D00F24B
:01259E00221A
:0E254C00122389ED54F0FF900027E04FF58038
:08255A00D29112257BC29122EF
:0F245600F090008474FFF09000007419F07FC0C4
:10246500AD07C29012254CEDC454F0FD54F0FFE0C9
:062475004FF58002255A1C
:10251E007F01122465E4FFFE1200210FBF00010EA1
:06252E00EF64FA4E70F2AA
:012534002284
:10229900C29012257BC29112257B7580391225784F
:1022A90012257812255A12257B75802912255A1272
:1022B900257B7F0C12246512251E1200217F061230
:1022C90024651200217F8012246512257B1223893F
:0722D900900027E0F58022D0
:0C247B0074852FF58274003EF583E0FFAD
:10248700AD07D29012002112254CEDC454F0FD5433
:09249700F0FFE04FF58002255A28
:10240900AE07ED14600F14601114601324037016E5
:10241900EE2480800DEE24C08008EE24948003EE23
:0724290024D4FF12246522F8
:0B2354009002CFEBF0A3EAF0A3E9F049
:10235F00E4FC9002CFE0FBA3E0FAA3E0F98C8275D6
:10236F008300121DF5FF60061224870C80E4900293
:09237F00CFE0FBA3E0FAA3E0F9B2
:012388002232
:0C25BD00AE07AF05AD061224090223543E
:08211800A3F0A37403F07F059E
:052120009002C9EFF080
:10212500C212D2B69002CB121E5200007530E49056
:1021350002CAF0C2B530B4439002CAE0703DA3E0D4
:10214500FCA3E0FDA3E0FEA3E0FFEF24FFFFEE34D8
:10215500FFFEED34FFFDEC34FFFC9002CB121E4672
:102165009002CBE0FCA3E0FDA3E0FEA3E0FFEC4D75
:102175004E4F70C19002CA04F080BA9002CAE07056
:1021850027FD9002C9E0FFEDC39F501A74812DF51C
:1021950082E43400F583E0F5A0C2B612257BD2B601
:1021A50012257B0D80DCD212D2B6D2B4D2B5A212E2
:0121B5002207
:03002300021A8D31
:0D1A8D00C0E0C0F0C083C082C0D075D0089A
:101A9A00209803021CEDAF99C298900114E024EB40
:101AAA00605224FE6074147003021B402404600315
:101ABA00021CE790007FE4F0EFFD3395E0FCED6453
:101ACA00024C7019E0FE04F074162EF582E434011B
:101ADA00F583EFF09001147415F0021CEDED640625
:101AEA004C6003021CED9000817406F07F01122104
:101AFA0020021CED9000BFE0B50F1C90007FE0FEB5
:101B0A0004F074162EF582E43401F583EFF09001A7
:101B1A00147417F0021CED021CE790007FE0FE042B
:101B2A00F074162EF582E43401F583EFF090011477
:101B3A007418F0021CED90007FE0FE04F074162E7B
:101B4A00F582E43401F583EFF090007FE0FD7C003C
:101B5A00D39464748094804003021CE7EF3395E0C9
:101B6A00FEEF64034E6003021CED9000C0741EF089
:101B7A00C20E900119E0121E831CBF3F1BBD411CFF
:101B8A007E441CAE451C28461C104D1BC64F1C3FEC
:101B9A00531C97551C76571C8E651C196F1BB47005
:101BAA001BE3731C867700001CD4900000741AF0A3
:101BBA00021CE5900000741CF0021CE5ED64104C58
:101BCA007009D2009000007422801D900000741BDE
:101BDA00F0300003021CE5803C90007FE064157041
:101BEA0017D2009000007427F09000027403F0905E
:101BFA000028740AF0021CE5900000741BF0300003
:101C0A0003021CE5800F9000007422F0021CE5908C
:101C1A0000007425F09000027401F0021CE59001A6
:101C2A00147414F09000007426F09000C3E4F0A33A
:101C3A0004F0021CE59001147414F090011AE0FDFE
:101C4A00B4310A900232E054FBF0021CE5EDB432E2
:101C5A000A900232E054EFF0021CE590011AE064A7
:101C6A00337078900232E054F7F0806F900000747D
:101C7A001EF080679000007420F0805F900000746E
:101C8A001FF08057900232E054DFF0804E9002320B
:101C9A00E054DFF09000007424F090011AE0900004
:101CAA0001F08037D2979000C3E4F0A3F0900000CF
:101CBA007423F080269000817402F0A37430F0A39C
:101CCA007405F0743F1221188000900084E4F090AB
:101CDA0001147414F09000007419F080009001143B
:0A1CEA007414F0309904C299C2048A
:0B1CF400D0D0D082D083D0F0D0E032FE
:0825C9002004FD8F99D20422C9
:0224E900AE073C
:1024EB00E4FDEDC39E5012747A2DF582E43401F5B0
:0924FB0083E0FF1225C90D80E900
:0125040022B4
:02253500AE07EF
:10253700EE54F0C4540F4430FF1225C9EE540F4433
:0525470030FF0225C970
:1024C500300704D2808002C280300804D2818002A5
:1024D500C281300904D2828002C282300A03D283CB
:0424E50022C283226A
:0425D100EFFEEDFF2D
:0125D50022E3
:04256200AD07AC060F
:10256600EEFFF599C2993099FDEDF599C29930992A
:01257600FD67
:012577002241
:101FE500E49002A3F0D2B5900113F09002A4743CE2
:101FF500F030B403022113E49002A2F0C2B5A3F0BD
:102005009002A4E0FF9002A3E0C39F4003022113C6
:1020150090029E121E520000753030B64F20B44C0F
:102025009002A2E0704690029EE0FCA3E0FDA3E0D2
:10203500FEA3E0FFEF24FFFFEE34FFFEED34FFFDCE
:10204500EC34FFFC90029E121E4690029EE0FCA31B
:10205500E0FDA3E0FEA3E0FFEC4D4E4F70BCA304F2
:10206500F09002A4E0049002A3F080AE30B6030223
:1020750020FE9002A2E060030220FE20B47BA3E0D4
:102085002481F582E43400F583E5A0F0900113E0A6
:1020950004F090029E121E520000271020B65A909E
:1020A50002A2E07054A3E02481F582E43400F583B4
:1020B500E5A0F090029EE0FCA3E0FDA3E0FEA3E016
:1020C500FFEF24FFFFEE34FFFEED34FFFDEC34FFA0
:1020D500FC90029E121E4690029EE0FCA3E0FDA32A
:1020E500E0FEA3E0FFEC4D4E4F70B1A304F090026B
:1020F500A4E0049002A3F080A330B4099002A4E008
:10210500049002A3F09002A3E004F0022005D2B5EA
:0321150002257B25
:10259F00EF540FC454F0FFED540F4FFF90022FF084
:0125AF002209
:0C0F410090029EEFF09002A0EBF0AA05D9
:100F4D009002A3121E52000000009002A7121E5222
:100F5D0000000000E49002BFF0A3F0A3F0A3F0A303
:100F6D00F0A3F0A3F0A3F0A3F0A3F0AF029002A3BF
:100F7D00E0F8A3E0F9A3E0FAA3E04FFFEAFEE9FDF4
:100F8D00E8FC9002A3121E469002A3E0FCA3E0FD34
:100F9D00A3E0FEA3E0FF7808121E339002A3121EF9
:100FAD00469002A0E0FF9002A3E0F8A3E0F9A3E0D1
:100FBD00FAA3E04FFFEAFEE9FDE8FC9002A3121E42
:100FCD00469002A3E0FCA3E0FDA3E0FEA3E0FF78C2
:100FDD0008121E339002A3121E469002A1E0FF904C
:100FED0002A3E0F8A3E0F9A3E0FAA3E04FFFEAFEC5
:100FFD00E9FDE8FC9002A3121E469002A3E0FCA3BB
:10100D00E0FDA3E0FEA3E0FF7808121E339002A3DB
:10101D00121E469002A2E0FFA3E0F8A3E0F9A3E0C0
:10102D00FAA3E04FFFEAFEE9FDE8FC9002A3121ED1
:10103D00469002A3E0FCA3E0FDA3E0FEA3E0FFA326
:10104D00121E467F007ECA7D9A7C3B9002A7E0F877
:10105D00A3E0F9A3E0FAA3E0FBC3121E22402A90FD
:10106D0002A7E0FCA3E0FDA3E0FEA3E02400FFEE59
:10107D003436FEED3465FDEC34C4FC9002A7121E2F
:10108D00469002BFE004F080BA9002BFE04430F019
:10109D007F007EE17DF57C059002A7E0F8A3E0F9E5
:1010AD00A3E0FAA3E0FBC3121E22402A9002A7E0A0
:1010BD00FCA3E0FDA3E0FEA3E02400FFEE341FFE41
:1010CD00ED340AFDEC34FAFC9002A7121E46900294
:1010DD00C0E004F080BA9002C0E04430F07F807E22
:1010ED00967D987C009002A7E0F8A3E0F9A3E0FAC2
:1010FD00A3E0FBC3121E22402A9002A7E0FCA3E04E
:10110D00FDA3E0FEA3E02480FFEE3469FEED34671D
:10111D00FDEC34FFFC9002A7121E469002C1E004C4
:10112D00F080BA9002C1E04430F07F407E427D0FE6
:10113D007C009002A7E0F8A3E0F9A3E0FAA3E0FB9E
:10114D00C3121E22402A9002A7E0FCA3E0FDA3E0FB
:10115D00FEA3E024C0FFEE34BDFEED34F0FDEC3413
:10116D00FFFC9002A7121E469002C2E004F080BA66
:10117D009002C2E04430F07FA07E867D017C00901D
:10118D0002A7E0F8A3E0F9A3E0FAA3E0FBC3121E67
:10119D0022402A9002A7E0FCA3E0FDA3E0FEA3E01D
:1011AD002460FFEE3479FEED34FEFDEC34FFFC904F
:1011BD0002A7121E469002C3E004F080BA9002C34B
:1011CD00E04430F0E47F107E27FDFC9002A7E0F8AC
:1011DD00A3E0F9A3E0FAA3E0FBC3121E22402A907C
:1011ED0002A7E0FCA3E0FDA3E0FEA3E024F0FFEEE8
:1011FD0034D8FEED34FFFDEC34FFFC9002A7121E37
:10120D00469002C4E004F080BB9002C4E04430F08C
:10121D00E47FE87E03FDFC9002A7E0F8A3E0F9A3CC
:10122D00E0FAA3E0FBC3121E22402A9002A7E0FCC5
:10123D00A3E0FDA3E0FEA3E02418FFEE34FCFEEDD9
:10124D0034FFFDEC34FFFC9002A7121E469002C540
:10125D00E004F080BB9002C5E04430F0E47F64FE12
:10126D00FDFC9002A7E0F8A3E0F9A3E0FAA3E0FBF0
:10127D00C3121E22402A9002A7E0FCA3E0FDA3E0CA
:10128D00FEA3E0249CFFEE34FFFEED34FFFDEC34B5
:10129D00FFFC9002A7121E469002C6E004F080BC2F
:1012AD009002C6E04430F0E47F0AFEFDFC9002A7F8
:1012BD00E0F8A3E0F9A3E0FAA3E0FBC3121E22407D
:1012CD002A9002A7E0FCA3E0FDA3E0FEA3E024F634
:1012DD00FFEE34FFFEED34FFFDEC34FFFC9002A772
:1012ED00121E469002C7E004F080BC9002C7E04495
:1012FD0030F09002A7A3A3A3E09002C8F04430F011
:10130D009002BFE0FF1224879002C0E0FF122487F5
:10131D009002C1E0FF1224879002C2E0FF122487E1
:10132D009002C3E0FF1224879002C4E0FF122487CD
:10133D009002C5E0FF1224879002C6E0FF122487B9
:10134D009002C7E0FF1224879002C8E0FF122487A5
:10135D0090029EE06455706C900113740FF0900034
:10136D00817402F0A37430F0A3740FF0A37455F0E0
:10137D009002BFE0900085F09002C0E0900086F0F2
:10138D009002C1E0900087F09002C2E0900088F0DA
:10139D009002C3E0900089F09002C4E090008AF0C2
:1013AD009002C5E090008BF09002C6E090008CF0AA
:1013BD009002C7E090008DF09002C8E090008EF092
:1013CD00A37403F090029EE06444600302151B9029
:1013DD0002AB121E5200000000E47F10FEFDFC90D7
:1013ED0002ABE0F8A3E0F9A3E0FAA3E0FBC3121E01
:1013FD002250409002ABA3A3A3E0FF248CF582E41E
:10140D003400F583E0FE74AF2FF582E43402F583EA
:10141D00EEF09002ABE0FCA3E0FDA3E0FEA3E02420
:10142D0001FFE43EFEE43DFDE43CFC9002AB121EE8
:10143D004680A69001137422F09000817402F0A3EF
:10144D007430F0A37422F0A37476F0A3743AF09084
:10145D0002BFE0900086F09002C0E0900087F0900F
:10146D0002C1E0900088F09002C2E0900089F090F7
:10147D0002C3E090008AF09002C4E090008BF090DF
:10148D0002C5E090008CF09002C6E090008DF090C7
:10149D0002C7E090008EF09002C8E090008FF0A39C
:1014AD00743AF09002AB121E5200000000E47F105F
:1014BD00FEFDFC9002ABE0F8A3E0F9A3E0FAA3E097
:1014CD00FBC3121E2250409002ABA3A3A3E0FF2446
:1014DD00AFF582E43402F583E0FE74912FF582E4DA
:1014ED003400F583EEF09002ABE0FCA3E0FDA3E049
:1014FD00FEA3E02401FFE43EFEE43DFDE43CFC9050
:10150D0002AB121E4680A69000A1743A807790011E
:10151D00137412F09000817402F0A37430F0A37470
:10152D0012F0A37454F0A3743AF090029EE0900070
:10153D0086F0A3743AF09002BFE0900088F090021C
:10154D00C0E0900089F09002C1E090008AF0900216
:10155D00C2E090008BF09002C3E090008CF09002FE
:10156D00C4E090008DF09002C5E090008EF09002E6
:10157D00C6E090008FF09002C7E0900090F09002CE
:0A158D00C8E0900091F0A37403F091
:011597002231
:10243000AE07EEC4540F540FFE6012EF540FFFE4CA
:10244000FDEDC39E5007740A2FFF0D80F4EF24307A
:05245000FF9000BEF04A
:012455002264
:10000300AE07EEC4540F540FFE6012EF540FFFE41B
:0D001300FDEDC39E5007740A2FFF0D80F411
:0100200022BD
:1022E000E4FEFDEFD3943074809480402774D02FA7
:1022F000FFE4FCECC39F500B0DED640A7002FD0E71
:102300000C80F0EEC454F054F0FEED540F4EFF90EC
:09231000022FF02290022FE0FFE1
:0123190022A1
:1024A000E4FEFDFCECC39F500B0DED640A7002FDD1
:1024B0000E0C80F0EEC454F054F0FEED540F4EFFBD
:0424C00090022FF067
:0124C40022F5
:10231A00E4FEFCEFC3946474809480400C749C2F98
:10232A00FF9002D2E004F080EAEFC3940A7480942A
:10233A0080400774F62FFF0E80EFAC07EE4430FFA3
:0A234A00122487EC4430FF022487C0
:0223E100AC0747
:1023E300EC7E0054F0FFEEC4F854F0C868FEEFC46E
:1023F300540F484430FF122487AF047E00EF540F7C
:062403004430FF022487B3
:0D25B000C294C296C295D291D290C20B2265
:1023B700C292C29312257B9000BF7430F030920313
:1023C700E004F03093079000BFE02402F07FC912C9
:0A23D70024659000BFE0FF02248798
:10159800900000E024E7B40F004003021A8690157B
:1015A800B475F003A4C58325F0C58373021A8C02B1
:1015B80015E1021811021709021A8602171D021AEC
:1015C800860219FA021A860217490218EE021884CE
:1015D80002199E02194B0217A2900232E0FF700313
:1015E800D20622EF54016401702F90005CE0900253
:1015F8009EF0E4F990005CE0FFE9C39F505574E267
:1016080029F582E43401F583E0FF747A29F582E450
:101618003401F583EFF00980DB900232E0FC5420BE
:101628006420703790005CE090029EF0E4F990002E
:101638005CE0FFE9C39F501B74E229F582E43401A2
:10164800F583E0FF747A29F582E43401F583EFF03D
:101658000980DB90029EE0FF021703EC548064804F
:10166800702290017A7402F09000BFE090017BF044
:10167800A37406F0A37447F0A37431F0A37403F0C5
:101688007F068077900232E0FC54046404701E9058
:10169800017A7402F0A37430F0A37406F0A37453B3
:1016A800F0A37431F0A37403F07F06804EEC54105D
:1016B8006410701E90017A7402F0A37430F0A37461
:1016C80006F0A37453F0A37432F0A37403F07F06FA
:1016D8008029900232E0540864086003021A8C9052
:1016E800017A7402F0A37430F0A37406F0A3745363
:1016F800F0A37433F0A37403F07F061224E90217F1
:101708009AC2109000C5741CF0E4F58CF58AC28D5D
:10171800D206021A81E4F990007FE0FFE9C39F50E6
:101728001B741629F582E43401F583E0FE748129DF
:10173800F582E43400F583EEF00980DB1221208085
:10174800517F80122465E4F9E9C394107480948071
:101758005026741629F582E43401F583E0FF74817C
:1017680029F582E43400F583EFF0741629F582E454
:1017780034011224830980D020B403021A8C30006B
:10178800057F061225C97F10122120900232E054ED
:10179800FEF090011474140219F620B403021A8C96
:1017A800E4F9E9C3941574809480501B741629F5E4
:1017B80082E43401F583E0FF748129F582E4340082
:1017C800F583EFF00980DB7F80122465790CE9C38B
:1017D800941474809480500E741629F582E43401B0
:1017E8001224830980E87F15122120900232E054E8
:1017F800FEF09001147414F09000007419F02000A9
:1018080003021A8C7F060225C920B403021A8C90A1
:1018180000817402F0A37430F0A37405F0744F12C1
:101828002118920330034E7F80122465E4F9E9C33E
:1018380094107480948050087F201224870980EEC9
:101848007FC0122465E4F9E9C39410748094805031
:101858000E741E29F582E434021224830980E8C23A
:1018680003900232E054FEF09000007419F09001E9
:10187800147414F022900000741BF022900001E010
:10188800FF7E00D39430748094805003021A8CD366
:10189800EF9439748094804003021A8C7F8012245C
:1018A80065E4F9E9C394107480948050087F20128D
:1018B80024870980EE900232E054FEF09000817493
:1018C80002F0A37430F0A37406F0A37455F09000EE
:1018D80001E0900085F0A37403F07F06122120E454
:1018E8009000840219F67F80122465E4F9E9C39414
:1018F800107480948050087F201224870980EE7F1E
:10190800C0122465E4F9741629F582E43400F583DD
:10191800E0FF60061224870980ECE49000C3F0A37E
:10192800F0900232E054FEF09000817402F0A3744B
:1019380030F0A37405F0A37445122119E4900084D3
:101948000219F67F80122465E4F9E9C394107480C3
:10195800948050087F201224870980EE7FC01224CB
:1019680065E4F9743A29F582E43400F583E0FF6010
:10197800061224870980ECE4900232F0900081740A
:1019880002F0A37430F0A37405F0A3744612211971
:10199800E490008480587F80122465E4F9E9C394B8
:1019A800107480948050087F201224870980EE7F6D
:1019B800C0122465E4F9E9C3941074809480500E31
:1019C800741629F582E434001224830980E8900013
:1019D800817402F0A37430F0A37405F0A3746F123D
:1019E8002119D2979001147414F0E4900232F00295
:1019F8001A8690007FE0D394057480948040731217
:101A0800229990007FE0FCD3941574809480404024
:101A18007F80122465E4F9E9C3941074809480509F
:101A28000E741A29F582E434011224830980E87FB0
:101A3800C012246590007FE024EBFBE4F9E9C39B26
:101A4800502C742A29F582E434011224830980ED8C
:101A5800EC24FBFC7F80122465E4F9E9C39C500E5A
:101A6800741A29F582E434011224830980EDD20620
:101A780080069000007419F0E4900084F022900031
:041A8800007419F0DD
:011A8C002237
:10250500C204759850438780438920758840758D2E
:09251500F4758BF4D28ED2AC22D5
:1000260078447C027D017BFF7A2279427E007F1133
:10003600121DCF78557C027D017BFF7A2279537E93
:10004600007F11121DCF78667C027D017BFF7A222C
:1000560079647E007F13121DCF78797C027D017B47
:10006600FF7A2279777E007F11121DCF788A7C0273
:100076007D017BFF7A2279887E007F11121DCF12C7
:1000860025B0C20DC206D297C2CFE4F5CDF5CCD2CB
:10009600CAD2AF122505E58954F04401F589C28D0F
:1000A600E4F58CF58AD28C122299C280C207C281ED
:1000B600C208C282C209C283C20A9000027401F059
:1000C600E4900028F0C200C2109001BEF0A3F090A8
:1000D60000C5741CF0E4900230F09000BE74FFF08E
:1000E6007408F0E4900014F0A3F0C2059000C07408
:1000F6001EF09000007419F09001147414F0C20CF4
:10010600E49000C3F0A3F0900232F07FC0122465A1
:10011600E490029BF0A3F090029BE0FEA3E024167D
:10012600F58274003EF583E0FF6013122487900287
:100136009CE004F070E190029BE004F080D9D2B517
:10014600D2B675A0FF9000C1E5A0F012159830B4A4
:1001560003020E0090008174FFF0121FE590011358
:10016600E07003020DFB90005CF09002307470F0BA
:10017600900081E064026003020DF6900084E0FFC7
:10018600644C601CEF64546017EF64556012EF64B2
:1001960041600DEF64706008EF6451600302068CE5
:1001A6009000027402F0C200EF645570537F801213
:1001B6002465E490029BF0A3F090029BE0FEA3E08E
:1001C6002455F58274023EF583E0FF6013122487FE
:1001D60090029CE004F070E190029BE004F080D96C
:1001E6007F86122465900085E0FDA3E0FBA3E090E6
:1001F60002A1F0900088E09002A2F07F550203DA97
:10020600900084E0645460030202A2900086E064D9
:100216004460030202A27FC0122465E490029BF0B0
:10022600A3F090029BE0FEA3E02479F58274023EDF
:10023600F583E0FF601312248790029CE004F070BF
:10024600E190029BE004F080D97F80122465E4905F
:10025600029BF0A3F090029BE0FEA3E02455F582FA
:1002660074023EF583E0FF601312248790029CE03F
:1002760004F070E190029BE004F080D97F8612249E
:1002860065900087E0FDA3E0FBA3E09002A1F0905B
:10029600008AE09002A2F07F440203DA900084E034
:1002A6006454600302033E900086E06430600302FB
:1002B600033E7FC0122465E490029BF0A3F09002F7
:1002C6009BE0FEA3E02466F58274023EF583E0FF20
:1002D600601312248790029CE004F070E190029B68
:1002E600E004F080D97F80122465E490029BF0A39D
:1002F600F090029BE0FEA3E02455F58274023EF5E1
:1003060083E0FF601312248790029CE004F070E102
:1003160090029BE004F080D97F86122465900087C6
:10032600E0FDA3E0FBA3E09002A1F090008AE0903C
:1003360002A2F07F300203DA900084E06454600386
:100346000203E0900086E0643070030203E0C29787
:100356007FC0122465E490029BF0A3F090029BE01C
:10036600FEA3E02402F58274013EF583E0FF6013EC
:1003760012248790029CE004F070E190029BE00456
:10038600F080D97F80122465E490029BF0A3F09060
:10039600029BE0FEA3E02455F58274023EF583E05D
:1003A600FF601312248790029CE004F070E1900233
:1003B6009BE004F080D97F86122465900086E0FFDA
:1003C600A3E0FDA3E0FBA3E09002A1F090008AE089
:1003D6009002A2F0120F4102062F900084E0FC6406
:1003E6004170437FC0122465E490029BF0A3F09015
:1003F600029BE0FEA3E0244BF58274003EF583E009
:10040600FF601312248790029CE004F070E19002D2
:100416009BE004F080D97FC7122465900085E0FF39
:1004260012248702062FEC644C600C900084E0F9DD
:1004360064516003020535E490029BF0A3F090013D
:1004460013E0FFFB90029BE0FCA3E0FDC39BEC9452
:1004560000503074812DF58274003CF583E0B43A87
:100466001290029DEDF0EF2401FEE43390029BF022
:10047600A3CEF090029CE004F070C390029BE004CF
:10048600F080BB7F80122465E490029BF0A3F0907D
:10049600029BE0FEA3E02433F58274023EF583E07E
:1004A600FF601312248790029CE004F070E1900232
:1004B6009BE004F080D97F8412246590029DE0249D
:1004C60001FEE43390029BF0A3CEF090029DE0245F
:1004D6000DFFE433FE90029BE0FCA3E0FDC39FEC1E
:1004E6009E501B74812DF58274003C122483900269
:1004F6009CE004F070D590029BE004F080CD7FC0B4
:10050600122465E490029BF0A3F07F2012248790CA
:10051600029CE004F0700690029BE004F0C3900297
:100526009CE0941090029BE0940040DE02062FE9C6
:100536006470600302062F7F80122465E490029B9C
:10054600F0A3F07F2012248790029CE004F070064E
:1005560090029BE004F0C390029CE0941090029BF2
:10056600E0940040DE7F80122465E490029BF0A3B5
:10057600F090029BE0FEA3E0FFC39408EE940050C7
:100586001312247B90029CE004F070E590029BE03D
:1005960004F080DDE490029BF0A3F090029BE0FE65
:1005A600A3E0FFC39408EE9400501A748D2FF582D1
:1005B600740012248290029CE004F070DE90029B8C
:1005C600E004F080D67FC0122465E490029BF0A37D
:1005D600F07F2012248790029CE004F070069002BF
:1005E6009BE004F0C390029CE0941090029BE09480
:1005F6000040DE7FC0122465E490029BF0A3F090D9
:10060600029BE0FEA3E0FFC39409EE9400501A7427
:10061600962FF582740012248290029CE004F070FA
:10062600DE90029BE004F080D6900232E04401F0B6
:10063600900113E090005CF0E490029BF0A3F09030
:10064600005CE0FF90029BE0FCA3E0FDC39FEC94FE
:1006560000502874812DF58274003CF583E0FF7408
:10066600E22DF58274013CF583EFF090029CE004E4
:10067600F070CC90029BE004F080C4900014E4F08B
:10068600A37454F0C205900084E06470600302070E
:10069600B57F80122465E490029BF0A3F07F2012C0
:1006A600248790029CE004F0700690029BE004F020
:1006B600C390029CE0941090029BE0940040DE7F81
:1006C60080122465E490029BF0A3F090029BE0FE6A
:1006D600A3E0FFC39410EE9400501312247B900203
:1006E6009CE004F070E590029BE004F080DD7FC0A2
:1006F600122465E490029BF0A3F07F2012248790D9
:10070600029CE004F0700690029BE004F0C39002A5
:100716009CE0941090029BE0940040DE7FC012247F
:1007260065E490029BF0A3F090029BE0FEA3E0FF3D
:10073600C39409EE9400501A74962FF58274001231
:10074600248290029CE004F070DE90029BE004F0AC
:1007560080D6900232E04401F0900113E090005CF4
:10076600F0E490029BF0A3F090005CE0FF90029B07
:10077600E0FCA3E0FDC39FEC9400502874812DF5A6
:100786008274003CF583E0FF74E22DF58274013C2F
:10079600F583EFF090029CE004F070CC90029BE0B1
:1007A60004F080C4900014E4F0A37454F0C20590E1
:1007B6000084E0FCB43F2C90017A7402F09000BFF4
:1007C600E090017BF0A37406F0A3743FF0A3745687
:1007D600F0A37403F07F061224E990008474FFF0FE
:1007E600020DF6EC64586003020874900085E0641C
:1007F60003707B900232F0900084F0900000741930
:10080600F0E49000C3F0A3F0D2977F80122465E451
:1008160090029BF0A3F07F2012248790029CE004B4
:10082600F0700690029BE004F0C390029CE09410E6
:1008360090029BE0940040DE7FC0122465E49002A3
:100846009BF0A3F090029BE0FEA3E02416F58274D1
:10085600003EF583E0FF7003020DF6122487900236
:100866009CE004F070DE90029BE004F080D69000DD
:1008760084E064537042900086E06403703A90000E
:1008860085E0FDB43109900232E04404F0801BEDAE
:10089600B43209900232E04410F0800E900085E0F8
:1008A600B43307900232E04408F0E4900086F090FA
:1008B60000007419F0020DF6900084E06465600390
:1008C600020DF6A3E0121E8308F631095D3309C452
:1008D600340A2B370A91380AFE390B553B0BC73DB4
:1008E6000C4D3E0CB43F0D1B400D8C4100000DF627
:1008F6007FC0122465E490029BF0A3F090029BE077
:10090600FEA3E0FFC39410EE9400501A746E2FF508
:1009160082740012248290029CE004F070DE900241
:100926009BE004F080D67F80122465E490029BF061
:10093600A3F07F2012248790029CE004F0700690BA
:10094600029BE004F0C390029CE0941090029BE0AE
:10095600940040DE020AF57FC0122465E490029BF3
:10096600F0A3F090029BE0FEA3E0FFC39410EE9488
:1009760000501A74292FF582740012248290029C6A
:10098600E004F070DE90029BE004F080D67F8012D7
:100996002465E490029BF0A3F07F20122487900246
:1009A6009CE004F0700690029BE004F0C390029C69
:1009B600E0941090029BE0940040DE020AF57FC0AE
:1009C600122465E490029BF0A3F090029BE0FEA344
:1009D600E0FFC39410EE9400501A74AC2FF58274A5
:1009E6000112248290029CE004F070DE90029BE0EB
:1009F60004F080D67F80122465E490029BF0A3F079
:100A06007F2012248790029CE004F0700690029BDF
:100A1600E004F0C390029CE0941090029BE09400E6
:100A260040DE020AF57FC0122465E490029BF0A323
:100A3600F090029BE0FEA3E0FFC39410EE940050FA
:100A46001A74032FF582740012248290029CE0042B
:100A5600F070DE90029BE004F080D67F8012246561
:100A6600E490029BF0A3F07F2012248790029CE082
:100A760004F0700690029BE004F0C390029CE094A0
:100A86001090029BE0940040DE80647FC0122465D3
:100A9600E490029BF0A3F090029BE0FEA3E0FFC36C
:100AA6009410EE9400501A74C02FF582740112242B
:100AB6008290029CE004F070DE90029BE004F080DD
:100AC600D67F80122465E490029BF0A3F07F20126B
:100AD600248790029CE004F0700690029BE004F0EC
:100AE600C390029CE0941090029BE0940040DE903C
:100AF60000027401F0020DF67FC0122465E4900234
:100B06009BF0A3F090029CE004F0700690029BE03C
:100B160004F090029BE07004A3E0641070E67F800E
:100B2600122465E490029BF0A3F07F2012248790A4
:100B3600029CE004F0700690029BE004F0C3900271
:100B46009CE0941090029BE0940040DE020DF67F3C
:100B5600C01224657F451224877F721224877F7214
:100B66001224877F6F1224877F721224877F2012B8
:100B760024877F531224877F741224877F6112246F
:100B8600877F741224877F751224877F73122487C8
:100B96007F80122465E490029BF0A3F07F2012244C
:100BA6008790029CE004F0700690029BE004F0C37C
:100BB60090029CE0941090029BE0940040DE020DAF
:100BC600F67FC01224657F451224877F7212248720
:100BD6007F721224877F2E1224877F201224877F1C
:100BE600431224877F611224877F721224877F64D1
:100BF6001224877F201224877F451224877F6A125A
:100C060024877F651224877F631224877F741224CA
:100C1600877F201224877F80122465E490029BF050
:100C2600A3F07F2012248790029CE004F0700690C7
:100C3600029BE004F0C390029CE0941090029BE0BB
:100C4600940040DE020DF67FC0122465E490029BFC
:100C5600F0A3F090029BE0FEA3E0FFC39410EE9495
:100C660000501A74D12FF582740112248290029CCE
:100C7600E004F070DE90029BE004F080D67F8012E4
:100C86002465E490029BF0A3F07F20122487900253
:100C96009CE004F0700690029BE004F0C390029C76
:100CA600E0941090029BE0940040DE020DF67FC0B7
:100CB600122465E490029BF0A3F090029BE0FEA351
:100CC600E0FFC39410EE9400501A745D2FF5827401
:100CD6000012248290029CE004F070DE90029BE0F9
:100CE60004F080D67F80122465E490029BF0A3F086
:100CF6007F2012248790029CE004F0700690029BED
:100D0600E004F0C390029CE0941090029BE09400F3
:100D160040DE020DF69000027401F0900232E044CB
:100D2600801224567F451224877F721224877F7291
:100D36001224877F6F1224877F721224877F2012E6
:100D460024877F431224877F411224877F521224EF
:100D5600877F441224877F80122465E490029BF0EB
:100D6600A3F07F2012248790029CE004F070069086
:100D7600029BE004F0C390029CE0941090029BE07A
:100D8600940040DE806A900232E054FEF090011436
:100D96007414F09000007419F0900002740112248B
:100DA60056E490029BF0A3F090029CE004F07006DB
:100DB60090029BE004F090029BE07004A3E06410B4
:100DC60070E67F80122465E490029BF0A3F07F20FA
:100DD60012248790029CE004F0700690029BE004C7
:100DE600F0C390029CE0941090029BE0940040DED9
:100DF600E4900113F0E4900081F030063190017A1E
:100E06007402F09000BFE090017BF0A37405F0A39C
:100E160004F0A37403F07F051224E99001147414FE
:100E2600F09000007419F0E4900232F0C20630CF60
:100E360010C2CF900230E0600814F0E07003741C1A
:100E4600F0208D03020F3BC28D9000C5E014F02008
:100E5600B718E0FF640E6003EF7011300206C2940B
:100E6600C2028008D294D2028002D2949000C5E0D9
:100E7600FF640E6003EF702F900002E0FF7E0064B7
:100E8600017006B207C208800AEF64024E700AC2F9
:100E960007B208C209C20A800EEF64034E7008C288
:100EA60007C208B209C20A9000C5E07065741CF05A
:100EB6009000C0E0600214F0900028E0600A14F090
:100EC600E0700590000204F09000C0E07033741EDC
:100ED600F07F80122465E490029BF0A3F07F20123D
:100EE600248790029CE004F0700690029BE004F0D8
:100EF600C390029CE0941090029BE0940040DED2E6
:100F06000EC296C295C2109000C5741CF0E4F58C12
:100F1600F58A900014E07002A3E06017900015E0D7
:100F260024FFF0900014E034FFF0E07008A3E064C2
:0B0F3600018002C2051224C502014820
:1021C200020026E493A3F8E493A34003F68001F20D
:1021D20008DFF48029E493A3F85407240CC8C3331E
:1021E200C4540F4420C8834004F456800146F6DFED
:1021F200E4800B0102040810204080901EA9E47EB6
:10220200019360BCA3FF543F30E509541FFEE493E1
:10221200A360010ECF54C025E060A840B8E493A3A8
:10222200FAE493A3F8E493A3C8C582C8CAC583CAD3
:10223200F0A3C8C582C8CAC583CADFE9DEE780BE8B
:011FE40000FC
:101CFF00E709F608DFFA8046E709F208DFFA803EC7
:101D0F0088828C83E709F0A3DFFA8032E309F608B3
:101D1F00DFFA8078E309F208DFFA807088828C831B
:101D2F00E309F0A3DFFA806489828A83E0A3F608CF
:101D3F00DFFA805889828A83E0A3F208DFFA804CA9
:101D4F0080D280FA80C680D4806980F28033801080
:101D5F0080A680EA809A80A880DA80E280CA8033E9
:101D6F0089828A83ECFAE493A3C8C582C8CCC58361
:101D7F00CCF0A3C8C582C8CCC583CCDFE9DEE78031
:101D8F000D89828A83E493A3F608DFF9ECFAA9F0B0
:101D9F00EDFB2289828A83ECFAE0A3C8C582C8CC06
:101DAF00C583CCF0A3C8C582C8CCC583CCDFEADE1F
:101DBF00E880DB89828A83E493A3F208DFF980CC81
:101DCF0088F0EF60010E4E60C388F0ED2402B4047A
:101DDF000050B9F582EB2402B4040050AF23234521
:061DEF008223901D4F73DA
:101DF500BB010CE58229F582E5833AF583E02250A3
:101E050006E92582F8E622BBFE06E92582F8E222EC
:0D1E1500E58229F582E5833AF583E4932206
:101E2200EB9FF5F0EA9E42F0E99D42F0E89C45F016
:011E3200228D
:101E3300E8600FEFC333FFEE33FEED33FDEC33FC0D
:031E4300D8F122B1
:0C1E4600ECF0A3EDF0A3EEF0A3EFF0220F
:101E5200A8828583F0D083D082121E69121E691275
:101E62001E69121E69E473E493A3C583C5F0C5839A
:101E7200C8C582C8F0A3C583C5F0C583C8C582C8DA
:011E8200223D
:101E8300D083D082F8E4937012740193700DA3A3EE
:101E930093F8740193F5828883E473740293686002
:061EA300EFA3A3A380DF02
:00000001FF
